:100000000C942A000C943F000C943F000C943F0089
:100010000C943F000C943F000C943F000C943F0064
:100020000C943F000C943F000C943F000C943F0054
:100030000C943F000C943F000C943F000C943F0044
:100040000C943F000C943F000C943F000C943F0034
:100050000C943F0011241FBECFE5D4E0DEBFCDBF1E
:1000600010E0A0E6B0E0EAEDF0E002C005900D92ED
:10007000A437B107D9F70E9441000C946B000C948F
:100080000000CF93DF93CDB7DEB764970FB6F89437
:10009000DEBF0FBECDBF8FEF81BB84E1E0E6F0E0B5
:1000A000DE01119601900D928A95E1F79E012B5E7B
:1000B0003F4FFE0131968081329682BB4FEF83ED38
:1000C00090E3415080409040E1F700C00000E2170B
:0A00D000F30789F7EECFF894FFCF95
:1000DA003F0006005B004F0066006D007C000700D1
:0400EA007F006F0024
:00000001FF
